:020000040800F2
:100000000000022035020008850200088502000871
:100010008502000885020008850200080000000033
:100020000000000000000000000000008502000841
:100030008502000800000000850200088502000813
:100040008502000885020008850200088502000874
:100050008502000885020008850200088502000864
:100060008502000885020008850200088502000854
:100070008502000885020008850200088502000844
:100080008502000885020008850200088502000834
:100090008502000885020008850200088502000824
:1000A0008502000885020008850200088502000814
:1000B0008502000885020008850200088502000804
:1000C00085020008850200088502000885020008F4
:1000D00085020008850200088502000885020008E4
:1000E00085020008850200088502000885020008D4
:1000F00085020008850200088502000885020008C4
:1001000085020008850200088502000885020008B3
:1001100085020008850200088502000885020008A3
:100120008502000885020008850200088502000893
:100130008502000885020008850200088502000883
:100140008502000885020008850200088502000873
:100150008502000885020008850200088502000863
:100160008502000885020008850200088502000853
:1001700085020008850200088502000800000000D2
:08018000850200088502000859
:1001880010B5054C237833B9044B13B10448AFF3C9
:1001980000800123237010BD000000200000000033
:1001A800D002000808B5034B1BB103490348AFF35D
:1001B800008008BD0000000004000020D0020008F4
:1001C800034AD2F8883043F47003C2F88830704785
:1001D80000ED00E082B0124A136B43F00103136391
:1001E800A2F56052136843F4805313600D4A5369B3
:1001F80043F0400353610C4B0193019B5A1E01923B
:10020800002BFAD1074A536923F040035361064B88
:100218000193019B5A1E0192002BFAD1E6E700BF19
:10022800003802400000024020A10700DFF834D067
:100238000D480E490E4A002302E0D458C450043336
:10024800C4188C42F9D30B4A0B4C002301E013600D
:100258000432A242FBD3FFF7B3FF00F011F8FFF717
:10026800B9FF7047000002200000002000000020B5
:10027800F8020008000000201C000020FEE7000033
:1002880070B50D4D0D4C641BA4100026A64209D173
:100298000B4D0C4C00F018F8641BA4100026A64265
:1002A80005D170BD55F8043B98470136EEE755F87F
:1002B800043B98470136F2E7F0020008F002000814
:1002C800F0020008F4020008F8B500BFF8BC08BC4A
:1002D8009E467047F8B500BFF8BC08BC9E467047FC
:0802E800F4FEFF7F010000009D
:0402F000AD01000854
:0402F4008901000874
:0400000508000235B8
:00000001FF
