:020000040800F2
:100000000000022081030008D1030008D10300088A
:10001000D1030008D1030008D1030008000000004C
:10002000000000000000000000000000D1030008F4
:10003000D103000800000000D1030008D10300082C
:10004000D1030008D1030008D1030008D103000840
:10005000D1030008D1030008D1030008D103000830
:10006000D1030008D1030008D1030008D103000820
:10007000D1030008D1030008D1030008D103000810
:10008000D1030008D1030008D1030008D103000800
:10009000D1030008D1030008D1030008D1030008F0
:1000A000D1030008D1030008D1030008D1030008E0
:1000B000D1030008D1030008D1030008D1030008D0
:1000C000D1030008D1030008D1030008D1030008C0
:1000D000D1030008D1030008D1030008D1030008B0
:1000E000D1030008D1030008D1030008D1030008A0
:1000F000D1030008D1030008D1030008D103000890
:10010000D1030008D1030008D1030008D10300087F
:10011000D1030008D1030008D1030008D10300086F
:10012000D1030008D1030008D1030008D10300085F
:10013000D1030008D1030008D1030008D10300084F
:10014000D1030008D1030008D1030008D10300083F
:10015000D1030008D1030008D1030008D10300082F
:10016000D1030008D1030008D1030008D10300081F
:10017000D1030008D1030008D103000800000000EB
:08018000D1030008D1030008BF
:1001880010B5054C237833B9044B13B10448AFF3C9
:1001980000800123237010BD04000020000000002F
:1001A8001C04000808B5034B1BB103490348AFF30F
:1001B800008008BD00000000080000201C040008A2
:1001C8001D4B5A6822F4FF4222F040025A605A68D6
:1001D80042F428525A605A6822F03F025A605A681C
:1001E80042F008025A601A6842F080721A60134B93
:1001F800114A126812F0007F1AD1CBB1104A136865
:1002080043F0050313600C4B9A6842F4A0529A60BD
:100218009A6842F400429A609A6842F002029A6030
:10022800064B054A926812F0080F03D113B17047C4
:10023800013BDDE7013BF4E700380240A0860100FE
:10024800003C02404FF0E023A7225A6100229A6145
:100258001A6942F005021A617047000008B5064A9B
:10026800D2F8883043F47003C2F88830FFF7A8FF4B
:10027800FFF7E8FF08BD00BF00ED00E04FF0E02306
:1002880000229A6138B14FF0E0231B6913F4803FD4
:10029800F8D00138F6E7704700B58E460A4AD368A9
:1002A80043F00803D360002209E0074B1B6813F0F2
:1002B800800FFAD010F80C10034B596001329446A5
:1002C8007245F2D35DF804FB0010014008B5064BF7
:1002D8001B6813F0200F02D0044B66221A7001210C
:1002E8000248FFF7D9FF08BD0010014000000020B8
:1002F800134A136B43F001031363124B196841F45B
:1003080080511960516C41F0100151641A6842F42F
:1003180000221A605A6A42F070025A621A6842F45D
:1003280000121A605A6A42F4E0625A62A3F57043F6
:1003380040F2D9229A60DA6842F40052DA607047D3
:10034800003802400000024008B5FFF7D1FF06213F
:100358000648FFF7A1FFFFF7B9FF0548FFF78EFF33
:10036800044A536983F040035361F4E734040008F6
:1003780040420F0000000240DFF834D00D480E491B
:100388000E4A002302E0D458C4500433C4188C42E7
:10039800F9D30B4A0B4C002301E013600432A2424C
:1003A800FBD3FFF75BFF00F011F8FFF7CDFF7047B5
:1003B800000002200000002004000020440400087F
:1003C8000400002020000020FEE7000070B50D4D5D
:1003D8000D4C641BA4100026A64209D10B4D0C4CF1
:1003E80000F018F8641BA4100026A64205D170BDC1
:1003F80055F8043B98470136EEE755F8043B984713
:100408000136F2E73C0400083C0400083C040008FC
:1004180040040008F8B500BFF8BC08BC9E46704709
:0C042800F8B500BFF8BC08BC9E46704749
:0804340072657365740A000093
:04043C00AD01000806
:040440008901000826
:04044400650000004F
:04000005080003816B
:00000001FF
