:020000040800F2
:100000000000022051030008A1030008A10300081A
:10001000A1030008A1030008A103000800000000DC
:10002000000000000000000000000000A103000824
:10003000A103000800000000A1030008A1030008BC
:10004000A1030008A1030008A1030008A103000800
:10005000A1030008A1030008A1030008A1030008F0
:10006000A1030008A1030008A1030008A1030008E0
:10007000A1030008A1030008A1030008A1030008D0
:10008000A1030008A1030008A1030008A1030008C0
:10009000A1030008A1030008A1030008A1030008B0
:1000A000A1030008A1030008A1030008A1030008A0
:1000B000A1030008A1030008A1030008A103000890
:1000C000A1030008A1030008A1030008A103000880
:1000D000A1030008A1030008A1030008A103000870
:1000E000A1030008A1030008A1030008A103000860
:1000F000A1030008A1030008A1030008A103000850
:10010000A1030008A1030008A1030008A10300083F
:10011000A1030008A1030008A1030008A10300082F
:10012000A1030008A1030008A1030008A10300081F
:10013000A1030008A1030008A1030008A10300080F
:10014000A1030008A1030008A1030008A1030008FF
:10015000A1030008A1030008A1030008A1030008EF
:10016000A1030008A1030008A1030008A1030008DF
:10017000A1030008A1030008A1030008000000007B
:08018000A1030008A10300081F
:1001880010B5054C237833B9044B13B10448AFF3C9
:1001980000800123237010BD000000200000000033
:1001A800EC03000808B5034B1BB103490348AFF340
:1001B800008008BD0000000004000020EC030008D7
:1001C800194B5A6822F4FF4222F040025A605A68DA
:1001D80042F428525A605A6822F03F025A605A681C
:1001E80042F008025A601A6842F080721A600E4B98
:1001F8001B6813F0007FFAD10C4A136843F005031B
:100208001360094B9A6842F4A0529A609A6842F4C3
:1002180000429A609A6842F002029A60024B9B6818
:1002280013F0080FFAD1704700380240003C024032
:100238004FF0E023A7225A6100229A611A6942F01E
:1002480005021A617047000008B5064AD2F88830DE
:1002580043F47003C2F88830FFF7B2FFFFF7E8FFF6
:1002680008BD00BF00ED00E04FF0E02300229A61D6
:1002780038B14FF0E0231B6913F4803FF8D0013800
:10028800F6E7704700B58E460A4AD36843F008037C
:10029800D360002209E0074B1B6813F0800FFAD0E7
:1002A80010F80C10034B5960013294467245F2D392
:1002B8005DF804FB001001400F4A136B43F0010383
:1002C80013630E4B196841F480511960516C41F069
:1002D800100151641A6842F400221A605A6A42F006
:1002E80070025A62A3F5704340F2D9229A60DA6824
:1002F80042F40052DA6070470038024000000240C1
:1003080000B5C1B0FFF7D8FF06210B48FFF7BAFFC9
:100318000A4B93E803000090ADF8041005216846E5
:10032800FFF7B0FF0648FFF79FFF064A536983F0BF
:1003380040035361ECE700BF040400080C04000804
:1003480040420F0000000240DFF834D00D480E494B
:100358000E4A002302E0D458C4500433C4188C4217
:10036800F9D30B4A0B4C002301E013600432A2427C
:10037800FBD3FFF769FF00F011F8FFF7C1FF7047E3
:100388000000022000000020000000201C040008DB
:10039800000000201C000020FEE7000070B50D4D95
:1003A8000D4C641BA4100026A64209D10B4D0C4C21
:1003B80000F018F8641BA4100026A64205D170BDF1
:1003C80055F8043B98470136EEE755F8043B984743
:1003D8000136F2E7140400081404000814040008A5
:1003E80018040008F8B500BFF8BC08BC9E46704762
:0C03F800F8B500BFF8BC08BC9E4670477A
:1004040072657365740A0000646174610A00000017
:04041400AD0100082E
:04041800890100084E
:04000005080003519B
:00000001FF
