:020000040800F2
:100000000000022029020008790200087902000895
:100010007902000879020008790200080000000057
:10002000000000000000000000000000790200084D
:100030007902000800000000790200087902000837
:1000400079020008790200087902000879020008A4
:100050007902000879020008790200087902000894
:100060007902000879020008790200087902000884
:100070007902000879020008790200087902000874
:100080007902000879020008790200087902000864
:100090007902000879020008790200087902000854
:1000A0007902000879020008790200087902000844
:1000B0007902000879020008790200087902000834
:1000C0007902000879020008790200087902000824
:1000D0007902000879020008790200087902000814
:1000E0007902000879020008790200087902000804
:1000F00079020008790200087902000879020008F4
:1001000079020008790200087902000879020008E3
:1001100079020008790200087902000879020008D3
:1001200079020008790200087902000879020008C3
:1001300079020008790200087902000879020008B3
:1001400079020008790200087902000879020008A3
:100150007902000879020008790200087902000893
:100160007902000879020008790200087902000883
:1001700079020008790200087902000800000000F6
:08018000790200087902000871
:1001880010B5054C237833B9044B13B10448AFF3C9
:1001980000800123237010BD000000200000000033
:1001A800C402000808B5034B1BB103490348AFF369
:1001B800008008BD0000000004000020C402000800
:1001C800034AD2F8883043F47003C2F88830704785
:1001D80000ED00E082B00190019B5A1E0192002BB5
:1001E800FAD102B07047000008B50A4A136B43F011
:1001F80001031363A2F56052136843F4805313603C
:100208000548FFF7E7FF054A536983F04003536148
:10021800F6E700BF0038024020A1070000000240B6
:10022800DFF834D00D480E490E4A002302E0D458B6
:10023800C4500433C4188C42F9D30B4A0B4C002326
:1002480001E013600432A242FBD3FFF7B9FF00F0CC
:1002580011F8FFF7C9FF70470000022000000020D6
:1002680000000020E4020008000000201C0000201C
:10027800FEE7000070B50D4D0D4C641BA410002660
:10028800A64209D10B4D0C4C00F018F8641BA410C1
:100298000026A64205D170BD55F8043B98470136A3
:1002A800EEE755F8043B98470136F2E7DC02000810
:1002B800DC020008DC020008E0020008F8B500BF14
:1002C800F8BC08BC9E467047F8B500BFF8BC08BC2F
:0402D8009E46704787
:0402DC00AD01000868
:0402E0008901000888
:0400000508000229C4
:00000001FF
