:020000040800F2
:100000000000022069030008B9030008B9030008D2
:10001000B9030008B9030008B90300080000000094
:10002000000000000000000000000000B90300080C
:10003000B903000800000000B9030008B903000874
:10004000B9030008B9030008B9030008B9030008A0
:10005000B9030008B9030008B9030008B903000890
:10006000B9030008B9030008B9030008B903000880
:10007000B9030008B9030008B9030008B903000870
:10008000B9030008B9030008B9030008B903000860
:10009000B9030008B9030008B9030008B903000850
:1000A000B9030008B9030008B9030008B903000840
:1000B000B9030008B9030008B9030008B903000830
:1000C000B9030008B9030008B9030008B903000820
:1000D000B9030008B9030008B9030008B903000810
:1000E000B9030008B9030008B9030008B903000800
:1000F000B9030008B9030008B9030008B9030008F0
:10010000B9030008B9030008B9030008B9030008DF
:10011000B9030008B9030008B9030008B9030008CF
:10012000B9030008B9030008B9030008B9030008BF
:10013000B9030008B9030008B9030008B9030008AF
:10014000B9030008B9030008B9030008B90300089F
:10015000B9030008B9030008B9030008B90300088F
:10016000B9030008B9030008B9030008B90300087F
:10017000B9030008B9030008B90300080000000033
:08018000B9030008B9030008EF
:1001880010B5054C237833B9044B13B10448AFF3C9
:1001980000800123237010BD000000200000000033
:1001A8000404000808B5034B1BB103490348AFF327
:1001B800008008BD000000000400002004040008BE
:1001C800094AD2F8883043F47003C2F888304FF0F7
:1001D800E02343F67F625A6100229A611A6942F06D
:1001E80005021A61704700BF00ED00E04FF0E02300
:1001F80000229A6138B14FF0E0231B6913F4803F65
:10020800F8D00138F6E7704708B5534A136B43F046
:1002180001031363A2F56052136843F4805313601B
:100228000A20FFF7E3FF0A20FFF7E0FF0A20FFF7A5
:10023800DDFF0A20FFF7DAFF0A20FFF7D7FF0A20C1
:10024800FFF7D4FF0A20FFF7D1FF0A20FFF7CEFF00
:100258000A20FFF7CBFF0A20FFF7C8FF0A20FFF7A5
:10026800C5FF0A20FFF7C2FF0A20FFF7BFFF0A20D9
:10027800FFF7BCFF0A20FFF7B9FF0A20FFF7B6FF18
:100288000A20FFF7B3FF0A20FFF7B0FF0A20FFF7A5
:10029800ADFF0A20FFF7AAFF0A20FFF7A7FF0A20F1
:1002A800FFF7A4FF0A20FFF7A1FF0A20FFF79EFF30
:1002B8000A20FFF79BFF0A20FFF798FF0A20FFF7A5
:1002C80095FF0A20FFF792FF0A20FFF78FFF0A2009
:1002D800FFF78CFF0A20FFF789FF0A20FFF786FF48
:1002E8000A20FFF783FF0A20FFF780FF0A20FFF7A5
:1002F8007DFF0A20FFF77AFF0A20FFF777FF0A2021
:10030800FFF774FF0A20FFF771FF0A20FFF76EFF5F
:100318000A20FFF76BFF0A20FFF768FF0A20FFF7A4
:1003280065FF0A20FFF762FF0A20FFF75FFF0A2038
:10033800FFF75CFF0A20FFF759FF0A20FFF756FF77
:100348000A20FFF753FF0A20FFF750FF034A5369BB
:1003580083F04003536163E7003802400000024025
:10036800DFF834D00D480E490E4A002302E0D45875
:10037800C4500433C4188C42F9D30B4A0B4C0023E5
:1003880001E013600432A242FBD3FFF719FF00F02B
:1003980011F8FFF739FF7047000002200000002025
:1003A8000000002024040008000000201C00002099
:1003B800FEE7000070B50D4D0D4C641BA41000261F
:1003C800A64209D10B4D0C4C00F018F8641BA41080
:1003D8000026A64205D170BD55F8043B9847013662
:1003E800EEE755F8043B98470136F2E71C0400088D
:1003F8001C0400081C04000820040008F8B500BF0D
:10040800F8BC08BC9E467047F8B500BFF8BC08BCED
:040418009E46704745
:04041C00AD01000826
:040420008901000846
:040000050800036983
:00000001FF
