:020000040800F2
:1000000000000220BD0200080D0300080D030008D7
:100010000D0300080D0300080D0300080000000098
:100020000000000000000000000000000D030008B8
:100030000D030008000000000D0300080D03000878
:100040000D0300080D0300080D0300080D03000850
:100050000D0300080D0300080D0300080D03000840
:100060000D0300080D0300080D0300080D03000830
:100070000D0300080D0300080D0300080D03000820
:100080000D0300080D0300080D0300080D03000810
:100090000D0300080D0300080D0300080D03000800
:1000A0000D0300080D0300080D0300080D030008F0
:1000B0000D0300080D0300080D0300080D030008E0
:1000C0000D0300080D0300080D0300080D030008D0
:1000D0000D0300080D0300080D0300080D030008C0
:1000E0000D0300080D0300080D0300080D030008B0
:1000F0000D0300080D0300080D0300080D030008A0
:100100000D0300080D0300080D0300080D0300088F
:100110000D0300080D0300080D0300080D0300087F
:100120000D0300080D0300080D0300080D0300086F
:100130000D0300080D0300080D0300080D0300085F
:100140000D0300080D0300080D0300080D0300084F
:100150000D0300080D0300080D0300080D0300083F
:100160000D0300080D0300080D0300080D0300082F
:100170000D0300080D0300080D0300080000000037
:080180000D0300080D03000847
:1001880010B5054C237833B9044B13B10448AFF3C9
:1001980000800123237010BD000000200000000033
:1001A8005803000808B5034B1BB103490348AFF3D4
:1001B800008008BD0000000004000020580300086B
:1001C800094AD2F8883043F47003C2F888304FF0F7
:1001D800E02343F67F625A6100229A611A6942F06D
:1001E80005021A61704700BF00ED00E04FF0E02300
:1001F80000229A6138B14FF0E0231B6913F4803F65
:10020800F8D00138F6E7704700B58E460A4AD36839
:1002180043F00803D360002209E0074B1B6813F082
:10022800800FFAD010F80C10034B59600132944635
:100238007245F2D35DF804FB0010014000B585B0AB
:10024800194A136B43F001031363184B196841F4FF
:1002580080511960516C41F0100151641A6842F4E0
:1002680000221A605A6A42F070025A62A3F570437B
:100278008A229A60DA6842F40052DA604FF4FA701F
:10028800FFF7B4FF0A4A01AB07CA03C323F8022BDE
:10029800120C1A700A2101A8FFF7B6FF034A536926
:1002A80083F040035361E9E7003802400000024050
:1002B80070030008DFF834D00D480E490E4A0023B9
:1002C80002E0D458C4500433C4188C42F9D30B4A02
:1002D8000B4C002301E013600432A242FBD3FFF76A
:1002E8006FFF00F011F8FFF7A9FF70470000022028
:1002F8000000002000000020840300080000002007
:100308001C000020FEE7000070B50D4D0D4C641B6D
:10031800A4100026A64209D10B4D0C4C00F018F889
:10032800641BA4100026A64205D170BD55F8043BF5
:1003380098470136EEE755F8043B98470136F2E74F
:100348007C0300087C0300087C0300088003000885
:10035800F8B500BFF8BC08BC9E467047F8B500BFAA
:08036800F8BC08BC9E4670477A
:0C037000656672207069646F720A0000FC
:04037C00AD010008C7
:0403800089010008E7
:04000005080002BD30
:00000001FF
