:020000040800F2
:1000000000000220B90200080903000809030008E3
:1000100009030008090300080903000800000000A4
:1000200000000000000000000000000009030008BC
:100030000903000800000000090300080903000884
:100040000903000809030008090300080903000860
:100050000903000809030008090300080903000850
:100060000903000809030008090300080903000840
:100070000903000809030008090300080903000830
:100080000903000809030008090300080903000820
:100090000903000809030008090300080903000810
:1000A0000903000809030008090300080903000800
:1000B00009030008090300080903000809030008F0
:1000C00009030008090300080903000809030008E0
:1000D00009030008090300080903000809030008D0
:1000E00009030008090300080903000809030008C0
:1000F00009030008090300080903000809030008B0
:10010000090300080903000809030008090300089F
:10011000090300080903000809030008090300088F
:10012000090300080903000809030008090300087F
:10013000090300080903000809030008090300086F
:10014000090300080903000809030008090300085F
:10015000090300080903000809030008090300084F
:10016000090300080903000809030008090300083F
:100170000903000809030008090300080000000043
:0801800009030008090300084F
:1001880010B5054C237833B9044B13B10448AFF3C9
:1001980000800123237010BD000000200000000033
:1001A8005403000808B5034B1BB103490348AFF3D8
:1001B800008008BD0000000004000020540300086F
:1001C800094AD2F8883043F47003C2F888304FF0F7
:1001D800E02343F67F625A6100229A611A6942F06D
:1001E80005021A61704700BF00ED00E04FF0E02300
:1001F80000229A6138B14FF0E0231B6913F4803F65
:10020800F8D00138F6E7704700B58E460A4AD36839
:1002180043F00803D360002209E0074B1B6813F082
:10022800800FFAD010F80C10034B59600132944635
:100238007245F2D35DF804FB0010014000B5C1B06F
:10024800184A136B43F001031363174B196841F401
:1002580080511960516C41F0100151641A6842F4E0
:1002680000221A605A6A42F070025A62A3F570437B
:100278008A229A60DA6842F40052DA600B4B93E8FB
:1002880003000090ADF8041005216846FFF7BCFF95
:100298004FF47A70FFF7AAFF034A536983F04003CB
:1002A8005361EBE700380240000002406C0300088D
:1002B800DFF834D00D480E490E4A002302E0D45826
:1002C800C4500433C4188C42F9D30B4A0B4C002396
:1002D80001E013600432A242FBD3FFF771FF00F084
:1002E80011F8FFF7ABFF7047000002200000002064
:1002F800000000207C030008000000201C000020F3
:10030800FEE7000070B50D4D0D4C641BA4100026CF
:10031800A64209D10B4D0C4C00F018F8641BA41030
:100328000026A64205D170BD55F8043B9847013612
:10033800EEE755F8043B98470136F2E774030008E6
:10034800740300087403000878030008F8B500BFB8
:10035800F8BC08BC9E467047F8B500BFF8BC08BC9E
:040368009E467047F6
:08036C00646174610A000000E5
:04037400AD010008CF
:0403780089010008EF
:04000005080002B934
:00000001FF
